{
  "_format": "hh-sol-artifact-1",
  "contractName": "WordPotArena",
  "sourceName": "contracts/WordPotArena.sol",
  "abi": [
    {
      "inputs": [
        {
          "internalType": "address",
          "name": "treasury_",
          "type": "address"
        },
        {
          "internalType": "uint256",
          "name": "treasuryFeeBps_",
          "type": "uint256"
        }
      ],
      "stateMutability": "nonpayable",
      "type": "constructor"
    },
    {
      "anonymous": false,
      "inputs": [
        {
          "indexed": true,
          "internalType": "address",
          "name": "previousOwner",
          "type": "address"
        },
        {
          "indexed": true,
          "internalType": "address",
          "name": "newOwner",
          "type": "address"
        }
      ],
      "name": "OwnershipTransferred",
      "type": "event"
    },
    {
      "anonymous": false,
      "inputs": [
        {
          "indexed": true,
          "internalType": "uint256",
          "name": "roomId",
          "type": "uint256"
        },
        {
          "indexed": true,
          "internalType": "address",
          "name": "player",
          "type": "address"
        },
        {
          "indexed": false,
          "internalType": "uint256",
          "name": "amount",
          "type": "uint256"
        }
      ],
      "name": "RewardClaimed",
      "type": "event"
    },
    {
      "anonymous": false,
      "inputs": [
        {
          "indexed": true,
          "internalType": "uint256",
          "name": "roomId",
          "type": "uint256"
        }
      ],
      "name": "RoomCancelled",
      "type": "event"
    },
    {
      "anonymous": false,
      "inputs": [
        {
          "indexed": true,
          "internalType": "uint256",
          "name": "roomId",
          "type": "uint256"
        },
        {
          "indexed": false,
          "internalType": "uint256",
          "name": "entryFee",
          "type": "uint256"
        }
      ],
      "name": "RoomCreated",
      "type": "event"
    },
    {
      "anonymous": false,
      "inputs": [
        {
          "indexed": true,
          "internalType": "uint256",
          "name": "roomId",
          "type": "uint256"
        },
        {
          "indexed": true,
          "internalType": "address",
          "name": "player",
          "type": "address"
        },
        {
          "indexed": false,
          "internalType": "uint256",
          "name": "amount",
          "type": "uint256"
        }
      ],
      "name": "RoomJoined",
      "type": "event"
    },
    {
      "anonymous": false,
      "inputs": [
        {
          "indexed": true,
          "internalType": "uint256",
          "name": "roomId",
          "type": "uint256"
        },
        {
          "indexed": false,
          "internalType": "uint256",
          "name": "totalPot",
          "type": "uint256"
        },
        {
          "indexed": false,
          "internalType": "uint256",
          "name": "treasuryAmount",
          "type": "uint256"
        },
        {
          "indexed": false,
          "internalType": "uint256",
          "name": "rewardPool",
          "type": "uint256"
        },
        {
          "indexed": false,
          "internalType": "uint256",
          "name": "totalScore",
          "type": "uint256"
        }
      ],
      "name": "RoomSettled",
      "type": "event"
    },
    {
      "anonymous": false,
      "inputs": [
        {
          "indexed": false,
          "internalType": "uint256",
          "name": "feeBps",
          "type": "uint256"
        }
      ],
      "name": "TreasuryFeeUpdated",
      "type": "event"
    },
    {
      "anonymous": false,
      "inputs": [
        {
          "indexed": true,
          "internalType": "address",
          "name": "treasury",
          "type": "address"
        }
      ],
      "name": "TreasuryUpdated",
      "type": "event"
    },
    {
      "inputs": [],
      "name": "BPS_DENOMINATOR",
      "outputs": [
        {
          "internalType": "uint256",
          "name": "",
          "type": "uint256"
        }
      ],
      "stateMutability": "view",
      "type": "function"
    },
    {
      "inputs": [
        {
          "internalType": "uint256",
          "name": "roomId",
          "type": "uint256"
        },
        {
          "internalType": "address[]",
          "name": "players",
          "type": "address[]"
        }
      ],
      "name": "cancelRoom",
      "outputs": [],
      "stateMutability": "nonpayable",
      "type": "function"
    },
    {
      "inputs": [
        {
          "internalType": "uint256",
          "name": "roomId",
          "type": "uint256"
        }
      ],
      "name": "claimReward",
      "outputs": [],
      "stateMutability": "nonpayable",
      "type": "function"
    },
    {
      "inputs": [
        {
          "internalType": "uint256",
          "name": "",
          "type": "uint256"
        },
        {
          "internalType": "address",
          "name": "",
          "type": "address"
        }
      ],
      "name": "claimedReward",
      "outputs": [
        {
          "internalType": "bool",
          "name": "",
          "type": "bool"
        }
      ],
      "stateMutability": "view",
      "type": "function"
    },
    {
      "inputs": [
        {
          "internalType": "uint256",
          "name": "entryFee",
          "type": "uint256"
        }
      ],
      "name": "createRoom",
      "outputs": [
        {
          "internalType": "uint256",
          "name": "roomId",
          "type": "uint256"
        }
      ],
      "stateMutability": "nonpayable",
      "type": "function"
    },
    {
      "inputs": [
        {
          "internalType": "uint256",
          "name": "roomId",
          "type": "uint256"
        }
      ],
      "name": "joinRoom",
      "outputs": [],
      "stateMutability": "payable",
      "type": "function"
    },
    {
      "inputs": [
        {
          "internalType": "uint256",
          "name": "",
          "type": "uint256"
        },
        {
          "internalType": "address",
          "name": "",
          "type": "address"
        }
      ],
      "name": "joinedRoom",
      "outputs": [
        {
          "internalType": "bool",
          "name": "",
          "type": "bool"
        }
      ],
      "stateMutability": "view",
      "type": "function"
    },
    {
      "inputs": [],
      "name": "nextRoomId",
      "outputs": [
        {
          "internalType": "uint256",
          "name": "",
          "type": "uint256"
        }
      ],
      "stateMutability": "view",
      "type": "function"
    },
    {
      "inputs": [],
      "name": "owner",
      "outputs": [
        {
          "internalType": "address",
          "name": "",
          "type": "address"
        }
      ],
      "stateMutability": "view",
      "type": "function"
    },
    {
      "inputs": [
        {
          "internalType": "uint256",
          "name": "roomId",
          "type": "uint256"
        },
        {
          "internalType": "address",
          "name": "player",
          "type": "address"
        }
      ],
      "name": "payoutFor",
      "outputs": [
        {
          "internalType": "uint256",
          "name": "",
          "type": "uint256"
        }
      ],
      "stateMutability": "view",
      "type": "function"
    },
    {
      "inputs": [
        {
          "internalType": "uint256",
          "name": "",
          "type": "uint256"
        },
        {
          "internalType": "address",
          "name": "",
          "type": "address"
        }
      ],
      "name": "playerScore",
      "outputs": [
        {
          "internalType": "uint256",
          "name": "",
          "type": "uint256"
        }
      ],
      "stateMutability": "view",
      "type": "function"
    },
    {
      "inputs": [
        {
          "internalType": "uint256",
          "name": "",
          "type": "uint256"
        }
      ],
      "name": "rooms",
      "outputs": [
        {
          "internalType": "uint256",
          "name": "entryFee",
          "type": "uint256"
        },
        {
          "internalType": "uint256",
          "name": "totalPot",
          "type": "uint256"
        },
        {
          "internalType": "uint256",
          "name": "rewardPool",
          "type": "uint256"
        },
        {
          "internalType": "uint256",
          "name": "treasuryAmount",
          "type": "uint256"
        },
        {
          "internalType": "uint256",
          "name": "totalScore",
          "type": "uint256"
        },
        {
          "internalType": "uint256",
          "name": "playerCount",
          "type": "uint256"
        },
        {
          "internalType": "bool",
          "name": "settled",
          "type": "bool"
        },
        {
          "internalType": "bool",
          "name": "cancelled",
          "type": "bool"
        }
      ],
      "stateMutability": "view",
      "type": "function"
    },
    {
      "inputs": [
        {
          "internalType": "uint256",
          "name": "roomId",
          "type": "uint256"
        },
        {
          "internalType": "address[]",
          "name": "players",
          "type": "address[]"
        },
        {
          "internalType": "uint256[]",
          "name": "scores",
          "type": "uint256[]"
        }
      ],
      "name": "settleRoom",
      "outputs": [],
      "stateMutability": "nonpayable",
      "type": "function"
    },
    {
      "inputs": [
        {
          "internalType": "address",
          "name": "newOwner",
          "type": "address"
        }
      ],
      "name": "transferOwnership",
      "outputs": [],
      "stateMutability": "nonpayable",
      "type": "function"
    },
    {
      "inputs": [],
      "name": "treasury",
      "outputs": [
        {
          "internalType": "address",
          "name": "",
          "type": "address"
        }
      ],
      "stateMutability": "view",
      "type": "function"
    },
    {
      "inputs": [],
      "name": "treasuryFeeBps",
      "outputs": [
        {
          "internalType": "uint256",
          "name": "",
          "type": "uint256"
        }
      ],
      "stateMutability": "view",
      "type": "function"
    },
    {
      "inputs": [
        {
          "internalType": "address",
          "name": "newTreasury",
          "type": "address"
        }
      ],
      "name": "updateTreasury",
      "outputs": [],
      "stateMutability": "nonpayable",
      "type": "function"
    },
    {
      "inputs": [
        {
          "internalType": "uint256",
          "name": "newFeeBps",
          "type": "uint256"
        }
      ],
      "name": "updateTreasuryFee",
      "outputs": [],
      "stateMutability": "nonpayable",
      "type": "function"
    }
  ],
  "bytecode": "0x6080604052600160035534801561001557600080fd5b506040516117ca3803806117ca833981016040819052610034916101a8565b6001600160a01b03821661008f5760405162461bcd60e51b815260206004820152601a60248201527f576f7264506f743a20747265617375727920726571756972656400000000000060448201526064015b60405180910390fd5b61271081106100e05760405162461bcd60e51b815260206004820152601460248201527f576f7264506f743a20696e76616c6964206665650000000000000000000000006044820152606401610086565b60008054336001600160a01b031991821681178355600180549092166001600160a01b0386161790915560028390556040519091907f8be0079c531659141344cd1fd0a4f28419497f9722a3daafe3b4186f6b6457e0908290a36040516001600160a01b038316907f7dae230f18360d76a040c81f050aa14eb9d6dc7901b20fc5d855e2a20fe814d190600090a26040518181527ffdc6c17f190a1a7e236af2f7387d9494b31405f8f9fad26e36a7fefe7190cef89060200160405180910390a150506101e2565b600080604083850312156101bb57600080fd5b82516001600160a01b03811681146101d257600080fd5b6020939093015192949293505050565b6115d9806101f16000396000f3fe6080604052600436106101095760003560e01c80639723283011610095578063d693ca8e11610064578063d693ca8e1461038d578063dcb62445146103c5578063e1a45218146103e5578063e80cfa5e146103fb578063f2fde38b1461041157600080fd5b8063972328301461031a5780639cfc4b451461033a578063ae169a501461034d578063bbba82571461036d57600080fd5b806338089a2d116100dc57806338089a2d146102455780634e9a7eaa1461026757806361d027b3146102a25780637f51bb1f146102da5780638da5cb5b146102fa57600080fd5b80630523f1c31461010e57806307a52cab14610141578063120d9adf146101575780631bae0ac8146101a2575b600080fd5b34801561011a57600080fd5b5061012e6101293660046112fa565b610431565b6040519081526020015b60405180910390f35b34801561014d57600080fd5b5061012e60035481565b34801561016357600080fd5b506101926101723660046112fa565b600560209081526000928352604080842090915290825290205460ff1681565b6040519015158152602001610138565b3480156101ae57600080fd5b506102066101bd366004611326565b6004602081905260009182526040909120805460018201546002830154600384015494840154600585015460069095015493959294919390919060ff8082169161010090041688565b604080519889526020890197909752958701949094526060860192909252608085015260a0840152151560c0830152151560e082015261010001610138565b34801561025157600080fd5b5061026561026036600461138b565b610446565b005b34801561027357600080fd5b506101926102823660046112fa565b600760209081526000928352604080842090915290825290205460ff1681565b3480156102ae57600080fd5b506001546102c2906001600160a01b031681565b6040516001600160a01b039091168152602001610138565b3480156102e657600080fd5b506102656102f5366004611405565b6107f2565b34801561030657600080fd5b506000546102c2906001600160a01b031681565b34801561032657600080fd5b50610265610335366004611326565b6108bc565b610265610348366004611326565b610969565b34801561035957600080fd5b50610265610368366004611326565b610b5c565b34801561037957600080fd5b5061012e610388366004611326565b610dfb565b34801561039957600080fd5b5061012e6103a83660046112fa565b600660209081526000928352604080842090915290825290205481565b3480156103d157600080fd5b506102656103e0366004611420565b610edf565b3480156103f157600080fd5b5061012e61271081565b34801561040757600080fd5b5061012e60025481565b34801561041d57600080fd5b5061026561042c366004611405565b61112e565b600061043d83836111fe565b90505b92915050565b6000546001600160a01b031633146104795760405162461bcd60e51b81526004016104709061146c565b60405180910390fd5b600085815260046020526040902080546104a55760405162461bcd60e51b815260040161047090611499565b600681015460ff16156104f55760405162461bcd60e51b815260206004820152601860248201527715dbdc99141bdd0e88185b1c9958591e481cd95d1d1b195960421b6044820152606401610470565b6006810154610100900460ff161561051f5760405162461bcd60e51b8152600401610470906114c8565b83821461056e5760405162461bcd60e51b815260206004820152601860248201527f576f7264506f743a206c656e677468206d69736d6174636800000000000000006044820152606401610470565b6000805b8581101561068057600087878381811061058e5761058e6114ff565b90506020020160208101906105a39190611405565b60008a81526005602090815260408083206001600160a01b038516845290915290205490915060ff166106125760405162461bcd60e51b8152602060048201526017602482015276576f7264506f743a20706c61796572206d697373696e6760481b6044820152606401610470565b858583818110610624576106246114ff565b60008c81526006602090815260408083206001600160a01b038816845282529091209102929092013590915550858583818110610663576106636114ff565b9050602002013583610675919061152b565b925050600101610572565b506004820181905560025460018301546127109161069d9161153e565b6106a79190611555565b6003830181905560018301546106bd9190611577565b600283015560068201805460ff1916600117905560038201541561078e5760015460038301546040516000926001600160a01b031691908381818185875af1925050503d806000811461072c576040519150601f19603f3d011682016040523d82523d6000602084013e610731565b606091505b505090508061078c5760405162461bcd60e51b815260206004820152602160248201527f576f7264506f743a207472656173757279207472616e73666572206661696c656044820152601960fa1b6064820152608401610470565b505b600182015460038301546002840154600485015460408051948552602085019390935291830152606082015287907f79355bee3c44ad4ad35c0f2cd00fe35595cf26aa0353a2734f7db851b950d4b39060800160405180910390a250505050505050565b6000546001600160a01b0316331461081c5760405162461bcd60e51b81526004016104709061146c565b6001600160a01b0381166108725760405162461bcd60e51b815260206004820152601a60248201527f576f7264506f743a2074726561737572792072657175697265640000000000006044820152606401610470565b600180546001600160a01b0319166001600160a01b0383169081179091556040517f7dae230f18360d76a040c81f050aa14eb9d6dc7901b20fc5d855e2a20fe814d190600090a250565b6000546001600160a01b031633146108e65760405162461bcd60e51b81526004016104709061146c565b612710811061092e5760405162461bcd60e51b8152602060048201526014602482015273576f7264506f743a20696e76616c69642066656560601b6044820152606401610470565b60028190556040518181527ffdc6c17f190a1a7e236af2f7387d9494b31405f8f9fad26e36a7fefe7190cef89060200160405180910390a150565b600081815260046020526040902080546109955760405162461bcd60e51b815260040161047090611499565b600681015460ff16156109e25760405162461bcd60e51b815260206004820152601560248201527415dbdc99141bdd0e881c9bdbdb481cd95d1d1b1959605a1b6044820152606401610470565b6006810154610100900460ff1615610a0c5760405162461bcd60e51b8152600401610470906114c8565b600082815260056020908152604080832033845290915290205460ff1615610a765760405162461bcd60e51b815260206004820152601760248201527f576f7264506f743a20616c7265616479206a6f696e65640000000000000000006044820152606401610470565b80543414610ac65760405162461bcd60e51b815260206004820152601860248201527f576f7264506f743a2077726f6e6720656e7472792066656500000000000000006044820152606401610470565b60008281526005602081815260408084203385529091528220805460ff19166001908117909155908301805491929091610b0190849061152b565b9250508190555034816001016000828254610b1c919061152b565b9091555050604051348152339083907f530d09111b31788e92c8203453a7624a899cda66357f576a4c7d4efb88453e8d9060200160405180910390a35050565b6000818152600460205260409020600681015460ff16610bb55760405162461bcd60e51b815260206004820152601460248201527315dbdc99141bdd0e881b9bdd081cd95d1d1b195960621b6044820152606401610470565b6006810154610100900460ff1615610bdf5760405162461bcd60e51b8152600401610470906114c8565b600082815260056020908152604080832033845290915290205460ff16610c425760405162461bcd60e51b8152602060048201526017602482015276576f7264506f743a20706c61796572206d697373696e6760481b6044820152606401610470565b600082815260076020908152604080832033845290915290205460ff1615610cac5760405162461bcd60e51b815260206004820152601860248201527f576f7264506f743a20616c726561647920636c61696d656400000000000000006044820152606401610470565b60008281526007602090815260408083203380855292528220805460ff19166001179055610cdb9084906111fe565b905060008111610d2d5760405162461bcd60e51b815260206004820152601960248201527f576f7264506f743a206e6f7468696e6720746f20636c61696d000000000000006044820152606401610470565b604051600090339083908381818185875af1925050503d8060008114610d6f576040519150601f19603f3d011682016040523d82523d6000602084013e610d74565b606091505b5050905080610dbe5760405162461bcd60e51b815260206004820152601660248201527515dbdc99141bdd0e881c185e5bdd5d0819985a5b195960521b6044820152606401610470565b604051828152339085907f24b5efa61dd1cfc659205a97fb8ed868f3cb8c81922bab2b96423e5de1de2cb79060200160405180910390a350505050565b600080546001600160a01b03163314610e265760405162461bcd60e51b81526004016104709061146c565b60008211610e765760405162461bcd60e51b815260206004820152601b60248201527f576f7264506f743a20656e7472792066656520726571756972656400000000006044820152606401610470565b60038054906000610e868361158a565b90915550600081815260046020526040908190208490555190915081907fce010a20c19ee1b8a42baca23af0187045e22b247e4ba704cc780cf175506d3290610ed29085815260200190565b60405180910390a2919050565b6000546001600160a01b03163314610f095760405162461bcd60e51b81526004016104709061146c565b60008381526004602052604090208054610f355760405162461bcd60e51b815260040161047090611499565b600681015460ff1615610f855760405162461bcd60e51b815260206004820152601860248201527715dbdc99141bdd0e88185b1c9958591e481cd95d1d1b195960421b6044820152606401610470565b6006810154610100900460ff1615610fdf5760405162461bcd60e51b815260206004820152601a60248201527f576f7264506f743a20616c72656164792063616e63656c6c65640000000000006044820152606401610470565b60068101805461ff00191661010017905560005b828110156110fc57600084848381811061100f5761100f6114ff565b90506020020160208101906110249190611405565b60008781526005602090815260408083206001600160a01b038516845290915290205490915060ff1661105757506110f4565b82546040516000916001600160a01b038416918381818185875af1925050503d80600081146110a2576040519150601f19603f3d011682016040523d82523d6000602084013e6110a7565b606091505b50509050806110f15760405162461bcd60e51b815260206004820152601660248201527515dbdc99141bdd0e881c99599d5b990819985a5b195960521b6044820152606401610470565b50505b600101610ff3565b5060405184907f4a8b3fe2d207def62a35e8887c4815bd2e584c72742a736154355e1ac6e1b34690600090a250505050565b6000546001600160a01b031633146111585760405162461bcd60e51b81526004016104709061146c565b6001600160a01b0381166111ae5760405162461bcd60e51b815260206004820152601760248201527f576f7264506f743a206f776e65722072657175697265640000000000000000006044820152606401610470565b600080546001600160a01b038381166001600160a01b0319831681178455604051919092169283917f8be0079c531659141344cd1fd0a4f28419497f9722a3daafe3b4186f6b6457e09190a35050565b60008281526004602052604081206006810154610100900460ff16806112295750600681015460ff16155b15611238576000915050610440565b80600401546000036112805760008481526005602090815260408083206001600160a01b038716845290915290205460ff16611275576000611278565b80545b915050610440565b60008481526006602090815260408083206001600160a01b0387168452909152812054908190036112b657600092505050610440565b81600401548183600201546112cb919061153e565b6112d59190611555565b95945050505050565b80356001600160a01b03811681146112f557600080fd5b919050565b6000806040838503121561130d57600080fd5b8235915061131d602084016112de565b90509250929050565b60006020828403121561133857600080fd5b5035919050565b60008083601f84011261135157600080fd5b50813567ffffffffffffffff81111561136957600080fd5b6020830191508360208260051b850101111561138457600080fd5b9250929050565b6000806000806000606086880312156113a357600080fd5b85359450602086013567ffffffffffffffff808211156113c257600080fd5b6113ce89838a0161133f565b909650945060408801359150808211156113e757600080fd5b506113f48882890161133f565b969995985093965092949392505050565b60006020828403121561141757600080fd5b61043d826112de565b60008060006040848603121561143557600080fd5b83359250602084013567ffffffffffffffff81111561145357600080fd5b61145f8682870161133f565b9497909650939450505050565b602080825260139082015272576f7264506f743a206f776e6572206f6e6c7960681b604082015260600190565b602080825260159082015274576f7264506f743a20726f6f6d206d697373696e6760581b604082015260600190565b60208082526017908201527f576f7264506f743a20726f6f6d2063616e63656c6c6564000000000000000000604082015260600190565b634e487b7160e01b600052603260045260246000fd5b634e487b7160e01b600052601160045260246000fd5b8082018082111561044057610440611515565b808202811582820484141761044057610440611515565b60008261157257634e487b7160e01b600052601260045260246000fd5b500490565b8181038181111561044057610440611515565b60006001820161159c5761159c611515565b506001019056fea2646970667358221220e62e4d8aa450c10447b7a277449e9ff7756c5eee8e500b70142bfa3bdec4ffdd64736f6c63430008180033",
  "linkReferences": {},
  "deployedLinkReferences": {}
}